S0120000736F632D656D7074795F352E733337AD
S214004000007C00205DA6000059A6000059A600000E
S21400401059A6000059A6000059A6000059A600009F
S21400402059A6000059A6000059A6000059A600008F
S21400403059A6000059A6000059A6000059A600007F
S21400404059A600008DA3000059A60000B55B00002D
S21400405091A3000095A300000DA600009DA30000FC
S21400406059A6000059A6000059A6000059A600004F
S21400407059A6000059A6000059A6000059A600003F
S21400408059A6000059A6000059A6000059A600002F
S21400409059A6000059A6000059A6000059A600001F
S2140040A059A6000059A6000059A600001DA400004D
S2140040B099A3000059A600007DA3000059A60000A1
S2140040C00182000059A6000010B5054C237833B9CC
S2140040D0044B13B10448AFF300800123237010BDD6
S2140040E0B8000020000000007CCD00000C4B43B15F
S2140040F00C480D4910B5AFF300800C48036823B98F
S21400410010BD0A48036833B97047094B002BF7D037
S214004110BDE810401847064B002BF5D0184700BFE7
S214004120000000007CCD0000BC000020B000002095
S21400413000000000154B002B08BF134B9D46A3F54F
S214004140803A00218B460F461348144A121A06F08E
S214004150FFFA0F4B002B00D098470E4B002B00D0D9
S21400416098470020002104000D000D48002802D0CA
S2140041700C48AFF3008006F0C7FA2000290000F0D4
S21400418013F806F0ADFA00BF00000800007C00201F
S2140041900000000000000000B8000020281B0020DF
S2140041A000000000000000002DE98048934A536894
S2140041B013F48063A7B008D04FF000531B68A3F138
S2140041C0020EDEF1000343EB0E03012191604FF077
S2140041D00052002111601EAE002B41D1304605F082
S2140041E0EBFE05F051FE0546002839D09DF87830E4
S2140041F0012B30D1446B05F0D1FE209B5F0713D511
S21400420005F042FE05F0B1FE044605F0BAFE3CB3EA
S21400421005F03AFE044605F037FE794B98602368B1
S2140042209D46636898471BE084B105F07BFD844299
S2140042300CD205F077FD04F13803834206D8636993
S21400424023B1204605F000FE0028D9D105F1C800AC
S21400425005F0FAFDD8E7C83005F0F6FD0028D7D1FE
S214004260684CE56C30462D0E05F024FB8E2D1CD8D0
S2140042706549664AD1F8B00040F00403C1F8B03092
S2140042804FF05013136013631366C2F89030C2F8F1
S214004290C030C2F8F030C1F8B0005B4AD36A23F0F1
S2140042A07F0343F02003D36201E08F2DF5D99DF8FC
S2140042B07930574D012B01BF564A136843F004036B
S2140042C0136000232B60544B02229A639B6B03F00F
S2140042D00F03934240F01C81D4F86C3101331DD09B
S2140042E04E4B1A68043B1B681A604D4B1A68043B19
S2140042F01B681A604B4B1A68043B1B681A604A4BD3
S2140043001A68043B1B681A60484B1A68043B1B6813
S2140043101A60474B1A68043B1B681A603E4FFB6CDA
S21400432023F0405323F0010343F00103FB64FB6ECC
S21400433043F08073FB663F4B186800B1042005F01D
S2140043403BFB3B6E23F0C0433B66FB6C43F006032F
S2140043503046FB6405F0AEFA9DF87900012812D1CC
S2140043609DF87830022B0ED833490B785BB9334A68
S214004370136843F0010313603B6E314A1A40314B19
S21400438013433B660870304BC8221A802F4BA0227E
S2140043901A802F4B0F20188005F0A6FA1E4B2D4AC8
S2140043A09A65D4F86821DF6CC7F30177C2F3072C4F
S2140043B05FFA82FE3B0240F20112934200F0D8847C
S2140043C0B3F5817F0AD2012B46D0C0F0DC84B3F56A
S2140043D0807F00F0DC8400210B4642E040F20122A0
S2140043E0934200F0CC84B3F5407F00F0D384B3F55D
S2140043F0007FF0D1D4F8703130E000BF00500E409E
S21400440000ED00E0B081E00F00400E4000A000404C
S214004410B40AC64364310E4000300E403C80E00FC4
S2140044204480E00F4C80E00F5480E00F5C80E00F8B
S2140044306480E00F8009C6437C05002044300E40AF
S214004440000F0EF0B4C0400BDA180020DC18002075
S214004450D818002077402057D4F87431C3F30721CA
S214004460DBB24FF41678ACEB0E0008FB00F0B0FBA6
S214004470F8F07044CA1A844508FB02F2B2FBF8F260
S2140044801A4445D3864543D88A4241D89A423FD3F8
S214004490B749CB6D23F4FE4323F0020343EA002022
S2140044A0C865236DDBB2032B00F27784D4F87C3129
S2140044B0DBB21B0313F4702F2AD1AD49C86E20F46B
S2140044C070400343CB664B6EE72A23F4FF7328BF86
S2140044D0E72223F0010343EA42034B66A54B012281
S2140044E01A608B6FD807FCD40B6C13F003030ED046
S2140044F001232B609E4B19469A6FD207FCD41A6C88
S21400450022F003021A648B6F13F00103FBD12B60B9
S214004510994D112005F08AFA0021022005F0C4F812
S2140045206B6A964823F001036B62954B00271F6069
S214004530AB6A23F0070343F00603AB62914BEB62D2
S2140045402A6B914B02F07F6213432B638F4B6B6396
S21400455006F022F80121022005F0A6F88C4805F0A6
S21400456041FA02236B678B4805F07CFF06F014F8CF
S21400457006F0A8F805F036FA6B6A854843F040580E
S21400458005F030FA824806F007F8C5F82480D5F81A
S214004590C83043F00103C5F8C8307F4BA26A9A655D
S2140045A00AA908AA352005F0C5FB30B19DF82030D1
S2140045B0042B06BF0A9B18683846C30315D57648F1
S2140045C000230CAA816D99540133062BFAD19DF86D
S2140045D0353043F060038DF835309DF8363043F0C3
S2140045E001038DF836306D4B5A606D4B6D4A1A607C
S2140045F000274FF480715A609A6099829F751F82D7
S214004600DF75694B694A1A605A609A6099829F758D
S2140046101F82DF75664B674DDFF8F491C5F88C7026
S21400462008221A70644B654A1A60654B654A1A6020
S214004630654B664A1A60664A6A60664A664B15604B
S214004640664A2B601360AB6A654A6F65BB4208BF5B
S2140046501346644AAF6513606423A5F84430A5F892
S2140046604630A5F84830A5F84070A5F84270A5F881
S2140046704A30A5F84C30A5F84E304FF6FF73AB82A3
S214004680112005F0D3F9042840F0ED8603F0ECFF86
S214004690304605F00FF9544B544AC3F8442148F20B
S2140046A0E672C3F838214FF40862C3F83421504A42
S2140046B0C3F8A0209DF87930012B4E4B05D19DF80C
S2140046C07820012A9CBF28221A654AF63F429A6043
S2140046D0494B454FDFF83C814FF0C0729A62002389
S2140046E0C7F8FC30454BC7F89C30454B7F221A6014
S2140046F003F1007323221A6003F541533433032277
S2140047001A604FF40023C7F894304FF0010A402394
S214004710C9F800A0C9F800304FF46073C8F800303C
S21400472001F0A6F9C8F800A001F044F98246002876
S214004730FAD101234FF00450F86740F6E462C7F858
S21400474080303049DFF8D08006F08BFD2E4B3B667C
S21400475098E8070086E80700842251462B4805F0B3
S214004760F7FF96E8070088E807006822514655E0FC
S21400477000300E409407C64300400E400148E80152
S214004780A004C8432000050007AD0AD047A00200D9
S21400479000F049020005080000500840D80000203C
S2140047A0380A002080060020200A0020800500200D
S2140047B0111900208C070020181B002030B40000C0
S2140047C0201B002048B400001C1B002038B400004A
S2140047D080070020481800204D63000014000020C9
S2140047E0E16800002C00002000400840C0E653515D
S2140047F07A27000F0030084000700840806D630381
S2140048002430084400B50000B80F00217C0F0021BA
S214004810944008460C400846E00F0021C44805F0C6
S21400482097FFC7F888A0C7F88CA0C7F890A0626D5D
S2140048302368D2B2FF2A43F3074301D05F1C01D19D
S21400484090221923BB49022093FBF0F342FA83F32C
S214004850CB7423234B74B84B88744FF603721A60DC
S21400486003F100734FF00008C3F800804FF0804358
S214004870C9F80030B14BB24A1A60B24AB2490323B3
S2140048801360516040F6FF715162B049C2F8308043
S21400489051635365AE4AAF491380AF4BAF4AA3F896
S2140048A00080AF4BC3F800805A604FF400525A6243
S2140048B0AC4A4FF44073136002F100724FF47A77FB
S2140048C0C2F8008002F17E420432136002F10072E8
S2140048D0C2F8008002F17E42043213604FF4807208
S2140048E00A6001F17E4104310B609F4B1A6003F1B0
S2140048F07E436C3BF0221A6003F10073A0221A601C
S2140049009A4B0122C3F8B82004F094F9984B9948C2
S214004910012241461A604C2205F01AFF964B974832
S21400492001221A60964A974B136003F021FD4FF45C
S214004930FA62B0FBF7F79448A7FB02234FEA022A75
S2140049404FEA032B10EB0A004BEA126B4FF0000104
S21400495041EB0B018D4A002306F0ECFA884AA0F5DD
S2140049608073824618F5FA70936247F100014FF49F
S2140049707A72002306F0DEFA80468B46BAF1000F04
S21400498004D12B2004F084F94FF0010A4FEA5A0EA6
S2140049904FEA0B214FEA082010EB0E0041EA18619F
S2140049A052464FF0000341F1000106F0C3FA784B7F
S2140049B01960784B834618604FEA0A634FEA1A2A52
S2140049C02FB92B20039304F063F9039B01274FF4C0
S2140049D07A784FEA570EA3FB080110EB0E0008FB8F
S2140049E00A113A4641F10001002306F0A3FA6A4B89
S2140049F0634F1960694B18600BF1FF333B63684BDC
S214004A0068484FF08052C3F880211A60664A012336
S214004A107B600723C2F8843003F0AAFCB0FBF8FBE7
S214004A206248634ADFF8B8814FF0000A10EB0A00CC
S214004A304FF0000141EB0B01002306F07BFA5D4BC3
S214004A4018604EF6602003F049FC5B4B404218624B
S214004A505A4800F0CBFF5A4B7B67A3F52003C7F8F4
S214004A608430584F4FF000033B704FF40023C9F8D2
S214004A700030554BD3F8C82042F0CC018A4240F0B3
S214004A80A081494AD268D00700F19B81D3F8103143
S214004A90C3F30823002B40F09481EFF3108072B626
S214004AA04A4BD3F818E0A3F5C0434FF06052D3F852
S214004AB084C0C8F80020464A4FF0006111602422E6
S214004AC0C3F88420434A042111604FF480429A665A
S214004AD04FF480525A621A6E5104FCD51A68D205F9
S214004AE0F9D54FF480429A66D3F888101E911FFAC3
S214004AF081FA39494FF0040BC1F800B03349C3F8C6
S214004B0084C0C1F818E09A6604F068FF4FF6050303
S214004B104FF60402924508BF9A46194BC3F858A0B0
S214004B2001233B702D4B186803F066FC5AE000BF6B
S214004B30140F00217C0F00217C000844400900204F
S214004B40115900003010084048160020F0080020D8
S214004B5032090020A8000846300900206C08002012
S214004B6090100840A0000844AC000846001008401A
S214004B700C400844280F0021C8400E4600040600DA
S214004B80005008400011010020A1070040420F001D
S214004B904416002040160020AC090020A80900207A
S214004BA000E100E0605107000040084000093D00B9
S214004BB000127A003C160020900F0021C00700204B
S214004BC00300C0003416002000400E40006008407D
S214004BD018600846004008460040084418000020B8
S214004BE018600844C24BC34A60210620596410600E
S214004BF00022C3F88420C04B4FF080521A604FF456
S214004C000013C8F800304FF06053C8F80030BB4BB4
S214004C1040F6FF725A625A6503F1C063A3F6BC738E
S214004C20B74A196040211160D5F88C20B54912F0BA
S214004C30080F4FF0080014BF1860086012F0010F4C
S214004C404FF0010014BF1860086012F0040F14BF84
S214004C50AD4DAE4D4FF4007012F0020F28604FF0CD
S214004C60020014BF18600860A14B12F0100F14BFAA
S214004C7000221B22DA6404234FF0C0521946104665
S214004C8004F09EFAA24BA34F95A1D1E9000103F1CF
S214004C900C05C3E915013B604FF0FF3192A3D3E941
S214004CA000236FF0010004F08BFA284601F098FF0D
S214004CB0944B38684FF0010808221A60C3F8008049
S214004CC003F5BF4358334FF400721A60924B02222A
S214004CD01A60874B1B22DA6464234FF0000AA0F8A0
S214004CE044309422A0F84A309623A0F84C20A0F82E
S214004CF04830A0F840A0A0F842A0343000F076FE7D
S214004D003D6805F10C0004F01DFA4FF00063C9F889
S214004D1000302B7B814A43EA08032B7353683D68B7
S214004D2023F00F0343F0030305F10C0005F13409EB
S214004D307B4D5360514601F0FBFE03F095FCC5F831
S214004D4000A0C5F804A0C5F808A0764B606AD3F8A2
S214004D508831754CC04300EA080003F4800318430A
S214004D6000F09C8303232370704BFF221A70C1E36C
S214004D70D4F87431190EC3F30743FFF772BBD4F8A7
S214004D807831FFF76BBBD4F86C31FFF767BBD4F80C
S214004D906C31EFE7D4F87031ECE7022FD4F88031AD
S214004DA008D0032F0AD0012F7FF482ABC3F307236A
S214004DB0FFF77FBBC3F30743FFF77BBB1B0EFFF773
S214004DC078BB142003F064FFAAE6012B2B68DFF8FB
S214004DD08CE1574A574C5848584903EA0C0311D1FE
S214004DE043F003032B6007230325CEF8003015603D
S214004DF0236006230360524B0B60524B4FF4404235
S214004E001A606FE343F0804343F014032B600723DC
S214004E100425CEF800301560236005230360C02308
S214004E200B608122484BEBE7FF2170E32068B860F7
S214004E30A288A37988F80630A8F8042078E3434BC4
S214004E40099918681B791E90337141B39DF81F208D
S214004E501B2A28BF1B22531D8DF81E300DF17D0026
S214004E60531C8DF87B3006F0FCF916A805F040F9C7
S214004E70374A9DF81E301288F25226A99A1C51FA1B
S214004E8082F2002102F8201C1698BDF85C1042F849
S214004E901F0C093322F81B1C8DF81E308BE30E23E3
S214004EA08DF81E300A238DF87B302A4B1A68CDF811
S214004EB07D205A681B7ACDF881208DF88530D4E79E
S214004EC0254B1A889B788DF85A300323ADF8582066
S214004ED08DF81D3083E309211E48B4E3AFF300804C
S214004EE0081B880200000000081B881A0400000047
S214004EF00000084070000844944008440010084031
S214004F0088400844440008441C6008461C60084466
S214004F108C070020740A0020440008467C0F0021FD
S214004F20E00F002100400E40380900201C00002041
S214004F30004108460C4108440C4108460841084414
S214004F40C10040000441084408410846E4C300008C
S214004F50F4C30000EAC30000F7C3000000410844A1
S214004F603B79B64AB6494FF4804005F023F93B79C1
S214004F704FF0000A08F1FF32082BA4F802A092B204
S214004F8000F08E812DD8042BAE4D59D0062B00F0A4
S214004F909080022B2CD1022A40F05482B6F80530BD
S214004FA0A94AAA494FF4804005F004F9B6F80580EE
S214004FB0A74AA649B8F5007F28BF4FF400784346B5
S214004FC04FF4804005F0F6F8002203231146022035
S214004FD02B70A5F8018004F00FF8A4F8008000F00C
S214004FE080BC102B00F0C28105D80A2B00F0BE80D2
S214004FF04FF006098CE1122B00F0F180522BF7D10E
S214005000A8F103081FFA88F5B6F80530914A00950E
S2140050104FF48040904905F0CDF8B6F8050003F04F
S21400502069F8002800F05D84037B5B0740F1598433
S2140050302A468A49B6F8050004F01BF800F051BC71
S214005040042A40F0FF81B7F80720B7F805308449F6
S21400505000924FF48040834A05F0ACF8B7F805900C
S2140050601FFA89F31846049303F044F8C846049BD5
S21400507010B9A4F802904BE090F80890D0F804B06D
S214005080794A0093B9F1020F0CBF4FF0010A4FF0B6
S214005090020A534675494FF4804005F08BF8052305
S2140050A02B7085F801A0A5F802804A4659460320D1
S2140050B092E0A8F107081FFA88F8B7F80530CDF88F
S2140050C00480B7F80720009269496A4ADFF8CCB135
S2140050D04FF4804005F06EF84FF00203B7F8050075
S2140050E0B7F807108DF84C300BF10203CDF80480AA
S2140050F00093CDF848B012AB0CCB03F023F84FF674
S214005100FF794845804606D17B68C3F30F2363804A
S2140051104FF00A09FCE04FF002038DF83C30CDF862
S21400512004A0CDF800A0CDF838B001300EAB0CCB03
S214005130494680B203F006F8484582461CBF00F197
S214005140FF3A1FFA8AFA4346CDF800A04A4A4B496E
S2140051504FF4804005F02EF807232B70A5F8018049
S214005160A5F803A000221146042035E0022A40F0EC
S21400517069814FF48040B6F80530414A414905F050
S21400518019F8B6F8050002F0B5FF10B94FF001099E
S214005190ADE3037B990740F1A883238826AA013B49
S2140051A022F86C3D12A9B6F8050003F03DFF8146D3
S2140051B0002840F09C83BDF82C50334A3349DDF874
S2140051C048802B464FF4804004F0F4FF1D4B0B2222
S2140051D01A7041462A46484603F00EFF81E3A8F1BE
S2140051E003081FFA88F5B7F80530294A00954FF4EA
S2140051F08040194904F0DEFFB7F8050002F07AFF98
S214005200002800F07983037B1A0740F17C832A4646
S2140052101249B6F8050003F02CFF8146002840F03E
S2140052206D831C4A1C494FF4804004F0C3FF054BB5
S21400523013221A7049464A464846CDE7AEB30000E8
S2140052407BC400005818002025B3000091C500005C
S214005250D8B200007CB300000FC50000E7000020B5
S2140052609DC50000C9B30000EFB200008EC4000068
S214005270B2C40000DCB300000AB30000DBC40000C8
S21400528044B30000BBC5000034B3000000C50000F6
S21400529073B300004CB300002DC50000E9000020E9
S2140052A0A8F105081FFA88F8B8F1020F02D0B8F185
S2140052B0100F2DD1B6F80720B6F805306B490092CE
S2140052C04FF480406A4A04F075FF6A4B12938DF8DB
S2140052D04C800023B6F80710B6F80500019300933B
S2140052E012AB0CCB02F02EFF4FF6FF73984205462A
S2140052F023D0238826AA043B22F8763D0BA903F088
S21400530093FE8146D8B16580B9F1000F00F0E982BE
S21400531096F804806588584A584943468DE8200226
S2140053204FF4804004F046FF554B01221A7083F874
S21400533001805D8083F8049014E77368E5E6BDF8A5
S2140053402280504A5049CDF800802B464FF48040CA
S214005350DDF82C9004F02EFF494B09221A7008F154
S21400536002025A705D8042464946A0E6A8F105054D
S214005370ADB2022D01D0102DCAD1B6F80720B6F86E
S21400538005303A4900924FF48040404ADFF8E4B0D6
S2140053904FF00009EDB204F00DFFB6F80500B6F8C0
S2140053A00710CDF848B08DF84C50CDF80490CDF8E5
S2140053B0009012AB0CCB02F0C5FE4FF6FF7A5045BC
S2140053C08046BAD08DF84450CDF80490CDF80090C1
S2140053D0CDF840B008F1010010AB0CCB514680B2BE
S2140053E002F0B0FE238826AA5045A3F10603054620
S2140053F022F8763D18BF00F1FF350BA9404618BFCE
S214005400ADB203F011FE814610B1A4F802807BE72E
S214005410BDF822901E4A1F49DDF82CA043464FF4E3
S21400542080408DE8200204F0C5FE154B11221A704C
S21400543009F104025A70A3F802809D804A4651463C
S2140054400520C9E64FF0040962E71022002112A8E1
S21400545005F07EF9104B129312A9022348461393C7
S21400546004F038FC3DE23B460DE400BF9DC500005D
S214005470A0B30000E9000020C7B200005DC5000030
S214005480581800205DB300000FC50000B6B300003A
S21400549085B3000033C5000010000020C14B1A6819
S2140054A09B88A380226003F007FB49460A2003F08E
S2140054B081FA2378DFF898C3022B7FF486AC2A683B
S2140054C002EA0C0343F0804343F020032B60B64B04
S2140054D04FF4EE421A6003F100734FF48A421A60EA
S2140054E043F8048C002003F0E7FAB04B03221A605E
S2140054F003F038FAAE4C3868B4F9002047F6FF716E
S2140055008A423FF491AC002104F086FD01463868DB
S214005510DFF840830C3001F00BFB6468002C7FF44E
S21400552085AC404604F0E4FDBB7B64F30003BB732C
S214005530A04AA14DDFF82093A04C2023BB82002177
S21400554082F80133284682F8033382F8053382F85E
S214005550063382F8043382F8073382F81C3360225D
S21400556005F0F6F89648974B85E8090025236B72F8
S21400557001232B720023C9F800300DF11F021B23F4
S21400558009A93620238004F0D5FB0DF11E020AA9D6
S214005590392004F0CFFBCDF80C9000283FF44FAC38
S2140055A09DF81E200A99202A28BF202230468DF812
S2140055B01E2005F056FE0DF11D020AA93A2004F041
S2140055C0B9FB00283FF47CAC9DF81D200A99202AE0
S2140055D028BF202216A88DF81D2005F042FEDFF811
S2140055E07C92794800234FF0020AC9F80030C9F8C7
S2140055F00430764B036080F804A003F099FF7448EB
S214005600744B036080F804A01023037203F066FF57
S2140056107148724B0360724B80F804A0C36080F838
S21400562008A0A0F810A08DE80804534690E80600ED
S214005630143003F0A1FD0998CDF8109000283FF42F
S2140056404AAC9DF81F1003F083FF6648664B036064
S2140056504FF0100980F8049003F06AFF6348644A2C
S214005660644B03604FF6FE7A0823C26080F804900D
S214005670A0F810A00372059303F030FF5E485F4A5F
S21400568002600C2202725E4AC26080F80490A0F8A3
S21400569010A003F023FF5B485B4A059B02604FF0B7
S2140056A0020B5A4A80F80490C260038280F808B061
S2140056B003F014FF5648574B0360574BC36080F8FF
S2140056C004900123038280F808B003F007FF5348D4
S2140056D0534B0360534BC36080F80490A0F810A0AF
S2140056E080F808B003F0FAFE4F48504B0360504B6A
S2140056F0C36080F80490A0F810A080F808B003F00B
S214005700EDFE4C4B049A1A604FF6FF729A809DF895
S2140057101E20202A05D8931DAB733146464805F057
S214005720A0FD9DF81D20202A06D8931D85F836304A
S21400573016A9424805F095FD00F028FF2B7BBA7BA2
S21400574043F001032B736B7B02F0010203F0F003BE
S21400575062F386136B73AB7B0BB90623AB73384BC4
S214005760B8F80410D8F800009980186095F835301D
S214005770042161F3030362F3861385F8353095F848
S214005780363013B9062385F836302E4BD8F800008D
S214005790B8F8042018609A802B4F00F05FFF3E4652
S2140057A02A4A5DE050C60000244108445841084497
S2140057B0D800002000E100E048090020D4000020C6
S2140057C0D6BE898E55555500B0080020FBC3000094
S2140057D0F0030020FEC300005005002001C40000B6
S2140057E0C4B20000D008002004C400004804002012
S2140057F0117E000015C40000A004002026C400008E
S214005800457B00004003002037C40000EFB30000D3
S214005810F804002048C40000CEC50000980300200D
S21400582059C40000257B0000E80200206AC400007E
S214005830E57A0000D40B00205D09002085090020D1
S214005840570900207F090020E00000201C0A0020E5
S214005850E8FFFFBF7C0A0020E4020020601800205A
S2140058601378002BFCD0EFF3108572B600231A468F
S2140058700DF12101254804F055FD284604F0AEF848
S2140058809DF8213013B1039A00231360039B1A6816
S214005890EFF3108872B6C2F501739BB23A440DF16D
S2140058A021011A4804F03EFD0546404604F096F8ED
S2140058B0039B18682844032818607FF671AFB7F872
S2140058C0008008F104039842FFF46AAF09D8B7F8DD
S2140058D00290B9F1040F3FF443ABB9F1060F3FF461
S2140058E0B4AD039A002313605AE74FF002097368B9
S2140058F0C3F30F23638007E54FF001097368C3F312
S2140059000F23638004E54FF00309F7E7200A002021
S214005910084BD3F8882012060AD408229A60064B51
S2140059201B6813F4007F14BF044A054A0223136061
S214005930704700BF00400840240F00210040084682
S21400594000400844F8B5084D084E094F04242C6062
S214005950D6F888305B0300D4F8BD3C60022002F025
S214005960BDFE2C60F4E700BF8840084600400840B3
S214005970884008440A4A53685B0708D1094B5B68AD
S2140059802BB1094B1B6AC3F30C03013B9361074B16
S21400599080221A60064A136823F04003136070479B
S2140059A000000840740F0021001008408840084698
S2140059B0140F0021024B5868C0F30360704700BF05
S2140059C00040084008B5074B408B9B88C31A4FF42D
S2140059D07A705843A0F6C41002F080FC024BD861DF
S2140059E008BD00BF38090020900F002170B504469E
S2140059F000283AD083894FF47A70584323B123683D
S214005A0003F51C531033184402F068FC174DE38965
S214005A1068604FF47A70584323B1236803F51C532B
S214005A201033184402F05AFCA861208A4FF47A76A4
S214005A307043A0F50350103802F050FC2860204652
S214005A4002F07CFC204602F01DFC204602F05CFCC6
S214005A502046FFF7B7FFA368208B06FB0030A0F5B3
S214005A600350103802F03AFC686170BD900F0021B8
S214005A70EFF3108072B6104B4FF00062C3F8802030
S214005A808022C3F880200222C3F880200822C3F8B0
S214005A9080201022C3F880204FF08052C3F8802068
S214005AA04022C3F880202022C3F880204FF0804296
S214005AB0C3F8802003F092BF00E100E0EFF310800F
S214005AC072B6124B1978B9B9114BD3E900230023EB
S214005AD002F4105213430FD10E4B10221A600C4BD7
S214005AE0D3E90023002302F4807213430AD00A4B42
S214005AF020221A6003F072BF074B10221A6000299A
S214005B00F5D1ECE72022034BF3E700BF3E09002067
S214005B10701800209440084494400846044B002225
S214005B201A70044B197811B11A70FFF7C7BF704787
S214005B303F0900203E09002038B50C4B1B789BB16E
S214005B400B4B1C6DC4F30C0474B9FFF7E7FF094B4D
S214005B50094DD3E900012246012300F480500021BC
S214005B602B7001F05DFA2C7038BD00BF3F09002095
S214005B700010084070180020241B002008B5EFF322
S214005B80108172B6FFF716FF032806D1074A53683E
S214005B9023F0F00343F0E0035360054B01225A6202
S214005BA00846BDE8084003F019BF00BF7C0F00217F
S214005BB000000840984B2DE9F04F1E6EDA6E164036
S214005BC09E6603F580538BB0D3F8E010D3F8EC2034
S214005BD001EA020AC3F8E8A003F5A043D3F8801050
S214005BE0D3F88C2001EA0209C3F88890A3F5005385
S214005BF059691A6A01EA02084FEA18421204DA6181
S214005C00864AD1680191D76D916E0F4027F40061E6
S214005C105166002E00F0F880350440F1DE80D3F89F
S214005C2088307F49802003F4E0520A600860102024
S214005C3041F8880C002A00F0D280DC0400F1D28003
S214005C40580500F1D2804FF40004B1074FF000056C
S214005C500BD5744B7249D3F8883003F460420A605F
S214005C60002A40F0C58044F4801416F4005F0CBF90
S214005C70002602266C4B0AEA0303002B54D01AF4C3
S214005C80206F07D0002004F0A9FC06202AF4802A02
S214005C9002F0FEFF1AF0090F09D0624B20229A602C
S214005CA0A3F5405301229A62082002F0F1FF1AF091
S214005CB0106F18D05B4B20229A60A3F54053012248
S214005CC0C3F8B8200093EFF3108B72B6002003F0F1
S214005CD0E3FD584603F082FE009B0422C3F8B8207A
S214005CE0092002F0D5FF1AF4202F07D0002004F078
S214005CF075FC07202AF4802A02F0CAFF1AF4803FB7
S214005D0012D04A4B4FF480321A60494BC3F8E42055
S214005D10D3F88020C2F30C023C2A05D8D3F8E03032
S214005D20D80301D502F06CFF1AF0040F09D0414BDE
S214005D301A684FF40053002A69D03F4A44F480247E
S214005D4013601AF4806F18BF44F004041AF480231A
S214005D50009300F086803949394B0A881B883948F9
S214005D601344043292B2033B0A8003F03C033649E4
S214005D7003444A6293F802B01BF0070219D193F865
S214005D8003E01EF0810F45D1304A0DF1080A516834
S214005D901068D446ACE803002D4908328A42E24631
S214005DA0F5D10AAA02EB9E0E1EF8202C4BEA020141
S214005DB09970042A03D11B4841680903FCD425497D
S214005DC0013A0B60062A49D8DFE812F037013A019B
S214005DD037013D01400143014301002435E74FF4FC
S214005DE0002432E74FF000742FE74FF400142CE73E
S214005DF01A0402D544F0806437E79B044CBF44F491
S214005E00800444F0807430E70024002532E7124A0C
S214005E10136096E70422C9E70000084000500840D7
S214005E208840084400400840090A0B09EC10084462
S214005E3000100840B404024324100844320900202D
S214005E4030090020F00800206010084056C6000008
S214005E5076C600003409002024100846032002F00D
S214005E6017FFB9F1000F1DD019F4805F18BF44F476
S214005E70004419F4807F18BF44F4803419F4005F9E
S214005E8018BF44F0100419F4007F18BF44F0200433
S214005E9019F4806F18BF44F0400419F4006F18BF5F
S214005EA044F08004B8F1000F2FD018F0007F18BF20
S214005EB046F0080618F0806F18BF46F0100618F077
S214005EC0006F18BF46F0200618F4802F18BF45F064
S214005ED0040518F4803F18BF44F4006418F4801FCB
S214005EE018BF44F4804418F4001F18BF44F002049E
S214005EF018F4002F09D0FFF75DFD831EDBB2012BDF
S214005F0001D9072801D144F40034002F00F0BD80E9
S214005F103A050DD59C4B9D4901221A609C4B4FF4C7
S214005F20006241F61F705A6608605A6600221A67B9
S214005F30BB0104D52B2002F0ADFB44F0804417F4DF
S214005F40E00F07D1F80440F19580019B13F0060F8F
S214005F5000F04081EFF3108972B617F4C00F4DD0F1
S214005F608C4A91688909C1F3090389058A494968F9
S214005F70906948BF6FEA8353C2B248BF6FEA935333
S214005F80000648BF62F0FF02814812F1460FC06D5E
S214005F9034DB13F5007F31D0B3EB820F2EDC01F03B
S214005FA07063B3F1806F02D011F0506F26D1C0023B
S214005FB024D4222002F06EFB754B4FF480225A60E8
S214005FC0DA6DD1021AD4744A01219160DA6E7349EF
S214005FD0D966DA664FF4E0025A66BA0207D55A6DF9
S214005FE012F0706F1EBF5A6D02F17F425A6527F499
S214005FF0C0072C2047F4801702F04CFB484603F0FD
S214006000EDFCB80204D5292002F044FB44F000540D
S214006010790221D5624B01221A605D4B4FF4805203
S2140060205A66272002F036FB5E4B80221A6010224A
S21400603043F8882C44F080541CE044F4005410E7E5
S21400604044F480640DE744F400740AE744F4807472
S21400605007E744F0080404E7FA0273D5504B012220
S2140060601A604B4B4FF480525A66282002F012FBFF
S21400607044F000647F0508D54B4B01221A60444B60
S2140060804FF480625A6646F00106484B484FD3E903
S2140060900001484B1A6820400123324029403B70DB
S2140060A000F0BEFF00233B70009BDBB1424C236830
S2140060B0B3B1D80712D4EFF3108572B63F4E4048FE
S2140060C03188022B01F03C07074440F00181236829
S2140060D0002B40F0B980284603F080FC00232360A4
S2140060E0FFF72AFDB8F1000F29D018F0007F14D072
S2140060F0294BD3F83821D20600F10181D3F80011DC
S214006100D3F80021520821F47F1102F4FE120A434C
S214006110C3F800214FF00072DA6118F0006F0ED05D
S2140061201D4BD3F8383113F0100F0CBF254A264A02
S2140061304FF400131360254B4FF000621A600BB04B
S214006140BDE8F08FFB0495D5154BDFF844904FF073
S214006150010AC3F800A04FF48053C9F86430222027
S21400616002F098FA4FF48023C9F80430D9F85C306E
S21400617013F4A00F7FF47EAF2A2002F08BFA144BA4
S214006180C3F828A056E700BFA45008446C50084443
S2140061900050084000700840004008400000010120
S2140061A0B4500844884008449450084470180020AE
S2140061B0241B002068180020340900203009002025
S2140061C0F0080020004108441841084420400844D4
S2140061D000100840504B01221A60504B4FF480517B
S2140061E059664F490A604FF400625A664D4ADA66AD
S2140061F0EFF3108A72B64C4B1B780BB1FFF7BEFC60
S2140062004A4B1A6DFFF7D6FB032802D0C2F30C02E6
S214006210B2B1474B1A78474B4FF001091A705046F7
S21400622003F0DCFBB9F1000F0CD1434B83F8009070
S214006230FFF744FC4FF48052002314431D4319E734
S2140062409146ECE70022F7E723F00103226822F0EC
S21400625001029A4240D1002222601A886FEA424226
S2140062606FEA52429F421A8029D1344A344F10882E
S214006270A7F1040A00EB0109043880B2A9EB00017B
S2140062801FFA81FE191DB94228BF514604282FD88F
S21400629010809A781B882549C3F30C03CB6302F061
S2140062A00702284B0EF07F01042A3180D96058621D
S2140062B005D1254B1B6803B1984702F063F91B4BC9
S2140062C0D3F8E030D9037FF506AF02F099FC02E779
S2140062D0012B08BF3B46B9E701F03F029A1A121A93
S2140062E01648008848BF403204389042B5DCF2E6D3
S2140062F0B1F900C0BCF1000FCADA0B46BCE7D3F810
S2140063001811D3F81821520821F47F1102F4FE1256
S2140063100A43C3F81821FDE6B4500844005008406C
S214006320A450084400000101440900200010084061
S214006330450900203F0900203E09002032090020C0
S214006340F408002060100840400900202DE9F04FB6
S214006350854D89B011464FF486709B46924603F0F1
S214006360DBFE2B692E463BB951464FF4837003F093
S214006370D3FE09B0BDE8F08FBBF1000F08BFBAF13D
S214006380080F40F0B88000214FF4817003F0C4FE7F
S21400639004AA6946022002F089FC0546002800F09F
S2140063A089809DF8003013F0F70F06D0EFF31080C9
S2140063B072B66E4B1D6003F011FB022D07D800224B
S2140063C02846114602F072FC0546002872D0B5F841
S2140063D000A01AF4004F6DD1AB7803F00703052B2D
S2140063E068D9073BD3F1000848EB030802F01EF912
S2140063F05FFA80F9B9F1000F79D05D4B1B6B03F0A3
S2140064000703063301259D40AAF1060A594B691E6B
S2140064101FFA8AFA01EA0A015F686D1A47F0005708
S2140064204D45394460D22A4604A804F01AFF04AB4E
S214006430A9EB05023946581904F013FF4E4B4F4A94
S214006440D3F80090D36B9DF91070DDF81250C3F3AB
S21400645001111B0C01FB033342F210718B4229D849
S214006460D46904F01F0401341C4402F09BF8444B2A
S21400647044491B6809684FF0004A4FF0000BE3FBE5
S21400648005AB5A460023E1FB0523D9F834304FF418
S2140064907A7103F5FA73B3FBF1F33B49D21A14236E
S2140064A0B0FBF3F301FB04340A23B0FBF3F0B4FBB8
S2140064B0F0F4141B736804945B7A8DF814309DF81E
S2140064C016308DF8157068F300038DF81630BDF899
S2140064D00230ADF81830029B079304A933690220F6
S2140064E0984703F0C1F844E74A4604A8A4E76FF0CB
S2140064F07F074C46DEE7BBF1000F08BFBAF5002F5A
S21400650009D1002140F2011003F006FE2B6900219C
S214006510012098472DE70AF4C0520023134309D000
S2140065204FF480714FF4817003F0F6FD2B69002163
S2140065300320EEE70AF440720023134308D001213B
S2140065404FF4817003F0E8FD33690021FF20E0E797
S2140065500AF020720023134319BF012140F20110F4
S21400656051464FF48370EDE7740A00207C18002033
S214006570001008403010084048180020006008400E
S214006580A8090020AC090020A086010008B54FF439
S2140065908570002103F0C0FD054B002203201A6120
S2140065A000F07AFB00F0E0FA0128FBD108BD00BF3E
S2140065B0740A0020012838B514BF01250225284694
S2140065C00CBF04242C4602F00BFC70B1012002F034
S2140065D007FC50B100F0C8FA420706D40D4B1888E5
S2140065E040F0807040EA05401860204602F0F8FB54
S2140065F078B1012002F0F4FB58B100F0B5FA830739
S21400660007D4044A13681B0C1B0443F4807323430B
S214006610136038BD240F002138B5B1F5007F0E4C4D
S21400662028BF4FF40071032222600D466060EFF32E
S214006630108072B6D4F8E020530758BF04234FF0FA
S2140066400001E160A56058BFC4F8E83003F0C6F961
S2140066500DB10223A36238BD001008402DE9F84FA3
S214006660384C394F2646637A384D0133DBB2272B38
S21400667088BF25232046637203F0C6FAB17B3448F0
S21400668096F80C800231FFF7C7FF6B68314A5B7AD9
S21400669008F00108404612F803A0FFF78BFF2E4BC8
S2140066A0D5F80080D3F888301A0608F10C0923D4F0
S2140066B05146484602F0B8FBF0B9484602F0F2FCF4
S2140066C0D0B9B8F84A3042F21072934298BFD01A46
S2140066D001F0EEFF8346EFF3108A72B6DFF884808F
S2140066E0D8F8A430DB0704D4D8F80C3013F0060929
S2140066F005D0504603F072F9FFF748FFB3E7FFF7FF
S21400670039F9164BC8F86C30154BC8F8709008224B
S2140067101A60144B4FF4006101223A60596640F645
S214006720014119670320594601F0F8FF18B90C4BD0
S21400673080221A60DDE7504603F050F90A4B2B61C1
S214006740BDE8F88F48090020A4500844740A0020C9
S2140067505509002007C8000000400840000001015D
S21400676088400844005008406D67000002282DE964
S214006770F3410D461ED002D8012805D0FEE70328B7
S21400678051D0FF284FD0F9E74F4C237B980707D509
S214006790FFF7FCFEFFF762FF237B6FF341032373D3
S2140067A0237B990701D4DA071ED402B0BDE8F04176
S2140067B0FFF754BF8B79CC68DB0734D5227802F01C
S2140067C00F07032F13D0052F2DD140498B7B03F0E5
S2140067D00103B3EBD21F04F1080005D106220831ED
S2140067E004F030FD804608B302B0BDE8F0813749BA
S2140067F08B7B03F00103B3EBD21F04F10800F3D147
S2140068000622083104F01EFD0028EDD12E4C94F827
S214006810361004F135000231FFF7FEFE237B43F00D
S21400682002032373E0E7FFF7B1FEBEE7FFF7AEFE15
S2140068302E68274D41465C22284603F089FFAB7E32
S2140068402F8343F02003AB76627E237E43EA022347
S214006850AB84627F237F43EA0223EB8494F82330E1
S214006860C3F3040385F84F3094F82330C3F3421380
S21400687085F8503004F11E001B232B8501F054F8D8
S214006880D4F80E30E27CEB60A37C2E6043EA022351
S214006890227D607D43EA02432B61012795F84F3045
S2140068A0AB722F75E18A394401F02AF800F008FD32
S2140068B0EA8CAB8C074900924FF40060064A03F05E
S2140068C079FC064B1F708FE748090020740A0020E9
S2140068D0C009002083C6000076C600001C0A0020FF
S2140068E0704700002DE9F84F804BDFF828B25F684C
S2140068F07F4BD3F8A090D3F8A480044600F1280577
S2140069004FF0010A11B10A68531C5AD102F02AF856
S214006910784B794A9B691278C3F382139A4204D063
S214006920764B2946186802F045F8704B5E68704B47
S214006930D3F8A010D3F8A42089450AD0704803786D
S214006940C1F3802E6EF30003C1F3C02161F341034F
S214006950037090450AD06A490B78C2F3802060F332
S2140069608203C2F3C02262F3C3030B7023894FF67F
S214006970FF72934207D0634A07211160002B60D153
S214006980614B05221A60B74200F0A78026B1336833
S21400699013B1B06800285DD1EFF3108072B65B4A81
S2140069A0136823F00703136003F018F8584B00220F
S2140069B01A605A60002E7BD13346194618461A468E
S2140069C07FE0C2F30360C2F307465BF8200093B291
S2140069D0012E43EA00030FD9B60088190A46A3EB36
S2140069E0010C0CEB020E52F8043FCEF80030824247
S2140069F0F7D104360E4415E0120F01F10806486878
S214006A00072A0FD8DFE802F00A0408120C1015183F
S214006A10C04303F1806301E01A685040186001E04B
S214006A2001F05CFE31466DE70AFA00F003F1C06340
S214006A30F4E70AFA00F0ECE71A6830EA0202FBD143
S214006A40F0E7B3F5805F28BF4FF48053284A013B38
S214006A50936198E72B4B2E4F07221A6003793B7001
S214006A60417991FAA1F2B2FA82F2202A08BF4FF0D9
S214006A70FF325FFA82FE21FA0EF102F00F0242EABE
S214006A8001127A708279BA70C279FA7002687A60F6
S214006A90174A01339361EFF3108072B61B4A1168F0
S214006AA081F0070303F007034B40136002F096FFE4
S214006AB03368002B81D03269B2B190681168D389EF
S214006AC05268E26243F2C822934228BF134620630C
S214006AD0A162E3862846FEF789FF237843F0020387
S214006AE023700020BDE8F88F134666E7EC0F002100
S214006AF000000840006008402800002054180020CD
S214006B00781800200400084404000846140F0021EA
S214006B10740F0021A0C6000008B590F86030032B63
S214006B2004D0084601F0C8FF002008BD022008BDBA
S214006B3070B590F86030032B05460E4611D02971CB
S214006B40416A39B102F056F930B968626988284658
S214006B5002F06AF9002070BD31462846FFF7DCFFD8
S214006B60F8E7022070BD00001B4BDB6813F0060F31
S214006B702BD11A4B5B6803F07063B3F1E06F0AD059
S214006B8011D8B3F1407F22D007D8B3F1807F02D06E
S214006B90B3F1007F11D102207047B3F1806FFAD0B5
S214006BA0B3F1A06FF6E7B3F1206F0ED007D8B3F1BC
S214006BB0006F0AD0B3F1106F0BD001207047B3F10D
S214006BC0306F02D0B3F1406FF7D104207047032036
S214006BD070470520704700BF00500840004008403E
S214006BE003789A0770B504464ED5426A002A4BD001
S214006BF06FF341030370254B5B686BB1196859B19D
S214006C00DB6813B11B78112B06D82149D1F83C312B
S214006C101B0C1B04C1F83C3153691A68531C09D07D
S214006C201B49D1F83C311B0C1B0492B21343C1F82C
S214006C303C3170BDD4E91223002203F00403134351
S214006C4004D1237843F00203237070BDEFF3108065
S214006C5072B62569E36805F480352B43E36002F0DD
S214006C60BDFE002275B90023D4E9120102400B4094
S214006C7052EA030108D00749A4F10C000968BDE8F0
S214006C80704008470423EFE770BD00BFEC0F0021FB
S214006C9000400840140000202DE9F047032800F2C9
S214006CA0B980DFE800F08B028487002425460126A1
S214006CB0EFF3108872B6002E40F08280002D7FD150
S214006CC0554A80231360554BD3F8A41011F0010FDA
S214006CD092460AD0524901220A604FF40061596672
S214006CE050490A604FF480525A664C4F4E4BFB6632
S214006CF000233B67FEF726FE4C4ADFF850911368E8
S214006D0043F0400313604A4BFF221A604FF480732F
S214006D10C9F808300423CAF80030002E73D0FEF7F6
S214006D202DFF222001F0B6FC4FF480237B60202349
S214006D30C9F808303B4B01221A604FF480537B663B
S214006D40002D5CD0204603F049FC3A4B01221A6025
S214006D5004B3394BDA6E9A6603F580431A6ADA6131
S214006D6003F50053D3F88C20C3F88820A3F54053CE
S214006D70DA6F9A67A3F50053D3F8EC20C3F8E8203F
S214006D8003F5C043DA6B9A63A3F500532B4A5A66A1
S214006D90FEF7C4FE404602F021FE002E3AD0284CF4
S214006DA0206803F02DF900232360BDE8F087002457
S214006DB001257CE701242546264679E70024FAE7E4
S214006DC0204FFEF7F7FD032804D13B6803F00F03BE
S214006DD0032BF6D1002D3FF473AFFEF7B3FD1A4B2D
S214006DE001221A6003F17E437C3304221A60FEF708
S214006DF0E1FD00283FF464AF01F0C4FBF7E740462E
S214006E0002F0ECFDCBE7002D9CD14046BDE8F047F4
S214006E1002F0E4BDBDE8F087884008440050084012
S214006E20A4500844B450084400000101140F002187
S214006E30004008440C400844000008405000F0029F
S214006E40B40900207C0F00210C4008460040084092
S214006E502DE9F84398464369012B06460D4617462A
S214006E6000F0BA80FFF780FE012829D1BB897C6834
S214006E70BF68ED1AADB23F2D2AD85A4B1A68944215
S214006E80994607D1584B1B689F4203D1B8F1000FB3
S214006E9000F08D8001F066FB804601F063FB48B190
S214006EA0524BB3FBF0F39C4204D3514BB3FBF0F0D0
S214006EB0844214D90E2001F0EBFE0220BDE8F883D0
S214006EC00120FFF7E9FEFFF74FFE0128FBD1CDE7D3
S214006ED0AA09BB0102FB034405F03F05CDE7B8F164
S214006EE0010F4FF010037AD0424A1360B8F1000F3A
S214006EF0E3D0C9F8004008FB04F43F4ADFF81091DD
S214006F000023E004610B04F015F8C9F82C00D9F84A
S214006F1030103948C1F313014FEAC8420023A1FBE1
S214006F20000104F007F8354B334A18602E4BF8047E
S214006F301F60A0FB08017B0B08FB0311002303F076
S214006F40F9FF2F4FC9F83C003B7823B9D9F85030E9
S214006F5003F03F033B702B4BD3F894305A061BD5F7
S214006F60294BB4FBF3F340F24D5203FB03F14A43C3
S214006F704CF20C6101FB132303F5C91303F55563AB
S214006F801BB92B2001F084FE012339781F4A4A439F
S214006F90B2FBF3F31E4A136501F062FA194BD3F8FD
S214006FA03831DB0654BF1B481B4801F025FA304633
S214006FB0FFF716FEFEF7FEFC0428FBD00A28F9D0E1
S214006FC010B10F2001F064FE114B9D6303F5805352
S214006FD080229A6001F044FA0020BDE8F8830F4A48
S214006FE0136086E730160020281600200037178921
S214006FF0007DDAAC3841084600F049022C16002025
S214007000BC0900200040084000366E0180969800BB
S21400701000300840C0CF6A00E067350038410844B9
S214007020654B2DE9F14F90461F6861A3D3E9002315
S21400703002400B40134304460D4600F08B800023AD
S21400704000F40022134318BF5C4B00F4801218BFF4
S214007050D3F890300023134318BF584B00F08052EB
S21400706018BFD3F890300023134309D0544B1B6845
S21400707003F07F43B3F1007F02BF524B02221A6037
S21400708004F0C0520023134305D04F4E306802F080
S214007090B7FF0023336004F00102002313433FD000
S2140070A0002200230120002102F08AF8DFF838A130
S2140070B0EFF3108B72B6FEF77DFC444B9A6892098C
S2140070C0C2F30903920548BF43EA0A0306460FFACD
S2140070D083F9FEF76FFC0238C0B201285CD8023E86
S2140070E0F6B2012E8CBF00260126584602F076FC2A
S2140070F019F5007F52D1002EDAD10120A7F81290A0
S214007100FFF7CAFD324B334E4FF400121A60306858
S21400711002F076FF002333603B7B43F008033B73AB
S214007120002205F00403134314D0A24625F0040BF6
S214007130EFF3108072B6FD69BB6905F001052B43BD
S214007140BB6102F04BFC00246DBB002544EA0A0438
S21400715045EA0B05D7E9152314401D4054EA0503FC
S2140071600ED01D4B2246196838462B4604F00804FC
S2140071700025884754EA05031EBF184B00221A60F4
S21400718018F0010F11D0164A13680020106063B182
S21400719001B0BDE8F04F18470026A6E7114A002EBA
S2140071A008BF9146A9E70425D0E701B0BDE8F08FF7
S2140071B0010018180400000048180020005008407D
S2140071C0240F002100400846B40900200070084043
S2140071D018600844B0090020140000207C18002025
S2140071E0B809002000FEFFFF00FCFFFF08B5194AA3
S2140071F019491A4C03464FF4006002F0DBFF184AA8
S214007200937E43F040039376164B00221A70164B7B
S2140072101B78012593B102F0C1FE4FF0005340F2F7
S2140072200222A5601A804FF20F025A80236823F4C8
S214007230E06343F48063236002F064FE4FF0005284
S214007240A5601360236823F4E06343F4806323603F
S21400725002F058FE09C70000F4C7000000500E40B8
S214007260C00900201C0A0020BD09002010B5134CE0
S214007270A37E5B0621D4FFF789F92168A38C40F230
S214007280E24202FB0312226094F84F10A27A2520F5
S2140072900A4492FBF0F100FB1122A272228901320D
S2140072A0228162680A2101FB03236360238B5A1E36
S2140072B0228313B90820FFF799FF10BDC0090020EC
S2140072C02DE9F84FDFF8A081594C40F601002189DE
S2140072D002F022FFA37E13F04002254640F0A58070
S2140072E043F0010303F0FD0362F38203514AA376E1
S2140072F0136821891BB192888A4200D19847A37AE5
S2140073004D481D4495F82A304C4D637502F07CFCC0
S2140073106B684B4A5B7A012094E8C00012F8039031
S214007320FFF748F9D5F800A0FFF71EFC01280AF180
S2140073300C04834675D12046494601F075FD044687
S214007340002835D1BAF844307F08F01BC01A01F087
S214007350AFF9814606F16400384401F0A9F9824687
S214007360EFF3108672B6374FD7F8A420D10704D5AE
S214007370304602F033FB03241AE0334AFA663349F8
S214007380334A3C6714700A6822F040020A604FF4E1
S2140073900062C8F800B07A662E4AFA664946224667
S2140073A0032001F0BBF950B9304602F017FB5C46EB
S2140073B002F05AF9002C36D0FFF758FF84E7D7F8CA
S2140073C0A430DA0703D4244B5B685B04D0D5234B88
S2140073D01C4F4FF0010B83F800B0FEF79FFB204BCD
S2140073E0C3F800B04FF480537B66FB6E23F0F8536F
S2140073F023F4F81343F0506343F48033FB66002213
S2140074005146042001F08AF938B94FF40063C8F8F1
S21400741000B07B660C4BFB66AAE7304602F0DEFA4D
S214007420C6E70224C4E70F4B2B61BDE8F88F00BF08
S214007430C0090020540A0020CC090020740A00204D
S21400744007C800000050084000000101140F00218A
S21400745045090020010C01000040084044090020B6
S214007460B4500844C1740000A4500844044B5A6D3C
S21400747022B95865A3F858100120704700207047BD
S214007480C0090020D0B50C4CE38C0A20584303F00A
S214007490B9FA0646A08C0F4603F0B4FA0022074B52
S2140074A003F016FB02460B463046394603F03AFC1C
S2140074B003F020FD2083D0BDC00900200000F43F6B
S2140074C02DE9F047022886B00E460BD003D80128D7
S2140074D000F0FA81FEE7032800F0FE81FF2800F0A6
S2140074E0FB81F7E7B64DCC68AB7ED90708D56FF3BE
S2140074F00003AB7600236B6033682B60FFF7C2FF98
S214007500B77917F0010742D14FF0FF3140F603007C
S21400751002F002FEAB7EAB4C13F0200F12D0696D6A
S2140075206FF34513AB76002900F0B681237895F803
S2140075305820627043F003032370A01C03F091FEF2
S21400754000236B65A04802F03FFEAB7E003018BFFC
S214007550012060F34103DAB2AB762378C2F3001160
S21400756061F38203C2F3C00262F3C30360F3041341
S2140075702370218840F6020002F0CEFD6178914823
S2140075800231C9B2FFF748F806B0BDE8F087218897
S21400759040F6030002F0C0FD2378AA7EC3F3001372
S2140075A063F382022378AA76C3F3C001C2F3001203
S2140075B0914208D103F00303022B00F0488104D85F
S2140075C0012B00F06681002787E0A3787F4A804978
S2140075D04FF4805002F0EEFDA378022B00F0998065
S2140075E012D8002B5DD0012B40D07A4A16782EB1E7
S2140075F0162B00F0CA80182B00F010817648072260
S2140076000270437002212EE00C2B22D0142B00F0C7
S2140076108F80082BE9D12646704956F8032F7368E9
S2140076204FF480508DE80C006D4A02F0C3FD6D4BA0
S2140076303268998AC8B20240674801F47F4106461C
S2140076400A43092106F8011B0023C0F801207360D5
S21400765009E0614800220370012343708370C27002
S214007660037142710621FFF701FF36E023895E4A67
S2140076705E494FF4805002F09DFD627A237A5C49A1
S21400768043EA02238B800B465A4A43F8062B2246CF
S21400769052F8030FC1F806009188998092799A7182
S2140076A01BE0A389544A51494FF4805002F082FDF2
S2140076B0627B237B4E4843EA0223838003464F4A7D
S2140076C043F8062B224652F8031FC0F806105168EE
S2140076D0596011891981927A9A72AB7E2178C3F328
S2140076E0C002C1F38001914207D082F0010262F32A
S2140076F0C303DBB243F02003AB76002F3FF40AAFA0
S214007700AB7EC3F3001282F0010262F30413AB7681
S21400771000E7E3783A4A3B494FF4805002F04AFDCE
S2140077202A89334B05329A80374A1A60E278B6E7E0
S214007730B4F80920B4F803300292B4F80720019296
S214007740B4F8052000923149314A4FF4805002F0D7
S21400775031FDB4F80530B4F803201F48DB08934227
S21400776028BF13462B85152300216FF004066FF003
S214007770270203700723817081714670C2700371FF
S2140077804671C271037209216DE72279E3782149B7
S21400779000924FF48050204A02F00CFD2279E378E4
S2140077A00D48134003F00303022B18BF01231722D2
S2140077B00321027043708370FFF758FE37468CE74C
S2140077C0C00900208C0A0020380A002000C70000EC
S2140077D018C70000500A0020680A00204BC70000A7
S2140077E0EBC60000740A0020BCC6000029C70000D3
S2140077F0540A0020899B0000CAC600002D9B00008A
S214007800DEC6000039C70000199B000064C70000F0
S214007810F6C60000A6C70000A8C60000B4F80520FB
S214007820E3780192227900922E492F4A4FF4805035
S21400783002F0C0FC6279A1792C4B42EA01229A80C0
S2140078402B4A1A60D4F80320C3F80620B6E7B946D8
S21400785094F80180B8F1000F3FF43FAF2548868AC0
S21400786002F0B2FC301A04F1020A80B2B9F1000F3D
S21400787004D0022886BF023880B200201FFA88F3A0
S21400788083423FF6A0AE524649461A4802F0E0FC54
S21400789023E74FF00009DBE795F828301648A21CCE
S2140078A00DF1170102F03EFDC0B258B19DF8173039
S2140078B0002B0CBF012202222378607062F30103C2
S2140078C023703FE60122F7E70C4B9B7E9A073FF5B5
S2140078D05BAE5B073FF558AEFFF7C8FCFFF7F0FC62
S2140078E052E600BFC6C70000AFC60000540A00201C
S2140078F0E99A0000200A0020380A0020C00900206B
S214007900084A10B5146840F2E243584303FB0141AD
S214007910536800F5807001EB500118441160506008
S21400792010BD00BFC009002030B500228BB0134642
S214007930D91003F00704415C2141CC0741BF0AA9D6
S2140079408918013201F8283C0133252BF0D10D4C63
S2140079500023D91003F00705415C2941C9075FBF22
S2140079600AAD93FBF2F102FB113149194EBF2370A9
S21400797011F8281C21700133252B04F10104E8D1ED
S2140079800BB030BDEA0900202DE9F047494B4A4CC0
S214007990DFF84C91494D0E4649491B1B17460B44D0
S2140079A0D9F8002023F4FF63801A23F007039842D7
S2140079B02860C84609D2434B1A783146374400201F
S2140079C0B94270D188B9BDE8F0873A44141802F07D
S2140079D0A9F9A0F580508442EDD2D9F800003C18F1
S2140079E0B4F5806F03D98222364B1A70EBE7DFF8C6
S2140079F0ECA03146344E3A46504403F032FCC9F807
S214007A000040D6F80090B9F1000F1BD1D72CDAD978
S214007A102E4A0AF1C8030AF1D80A53F8041B42F8A2
S214007A20041B5345F9D1294802F00EFA08B98422FE
S214007A30DAE71022FF21264802F08AFE2B68254A44
S214007A40C83313602868244B04F003070444E41B7F
S214007A501C40B9F1000F09D11840C0F5006121445F
S214007A6002F062FA346040B18522BDE7A14504D237
S214007A70A4EB090109F50060F2E7D8F800201749E1
S214007A802868D21B02F05EFAD8F800202B6814494A
S214007A90D21B0446134411482B6002F0A5FA002CB2
S214007AA0E2D1BDE8F08711F8014BFF2C1CBF012086
S214007AB0832285E7B400002010000020E80F002095
S214007AC0C7D50000E50F0020181600200012002081
S214007AD0DC1200201012002000F8FFFF1412002015
S214007AE01416002070B50E46B0B902F0CDF9044663
S214007AF002F0CAF960B1094D04F1C80304F58074B8
S214007B00186859682A4603C20833A3421546F7D1B7
S214007B10034B33600423B380002070BD8C0B002021
S214007B20AC0B002010B50C4630B9044802F044FAFD
S214007B30034B23600423A380002010BDC80B002045
S214007B40CC0B00202DE9F04F01288DB040F040818D
S214007B508A88002A00F03E81A04D95F800B0BBF15F
S214007B60000F00F039819E4B1C7898465CB99D4802
S214007B70067882463EB99C4E30681718B7F5806F77
S214007B8005D982241C7020460DB0BDE8F08FDFF8C2
S214007B9070920968484403F064FBBBF1020F37603B
S214007BA048D0032FEFD905A802F006FA9DF8143046
S214007BB0D9F80020012B8D4B30D19A4260D1079B1B
S214007BC0DB032DD502232B7002F0E8F940F62803DC
S214007BD01B68A3F50062B2F5605F04D21B6B03A9B5
S214007BE09B68002098470398814B824A186020F4CF
S214007BF0FF6323F007034FF40061136002F094F96B
S214007C0038B902F041F990B14FF4006102F08CF9F6
S214007C1068B1852388F800301C46B4E79A422FD115
S214007C20842388F8003098F80030002BF2D12B78A7
S214007C30022BA8D1704B714F1A7812F0F70F9946A5
S214007C4040F09A806A4B35681B6805F0030B1D44AC
S214007C503B681D44674B0193A5EB0B0525F4FF65B8
S214007C60186825F0070585420DD9291A00F5006029
S214007C7002F05AF9019B28B1852488F8004082E773
S214007C808623CEE71D6040F628031A68A2F5006337
S214007C90B3F5605F6DD2126B336815693968584A60
S214007CA0A3EB0B030020A847054632683B684E4905
S214007CB05348A2EB0B0213443B6002F095F9002DEB
S214007CC0DAD199F80030002B7FF45DAF3B687F2B4C
S214007CD07FF759AF03A905A801F08EFD10B9059BE3
S214007CE089F8003099F8003013F0F70F3FF44BAFE7
S214007CF040F628053B682A68A2F50061B1F5605F8A
S214007D00BAD2126B0021D2F80C903D4A0846C847FA
S214007D100028B1D13B683360364B3A4F18603A4B77
S214007D207B602B68A3F50062B2F5605FA4D29B6A05
S214007D3036484FF40071984700289DD12A6833686A
S214007D40A2F50061B1F5605F3FD2D56A2F482C4A94
S214007D503946A847054632682349294802F044F9BF
S214007D6040F203239D4222D040F201239D422AD1B5
S214007D7009E74FF4817598E73A6833681A443A6021
S214007D8040F628021268A2F50061B1F5605F12D2D3
S214007D90D56A1C491A4A1D48A84705463268124942
S214007DA0174802F021F940F203239D4206D1012331
S214007DB08AF80030E7E640F20225EFE740F20123BA
S214007DC09D423FF47EAF802457E740F20225C2E78B
S214007DD00024D8E60D24D6E68124D4E6E60F00205B
S214007DE0E50F0020E40F0020E00F0020EB17A603AD
S214007DF01C16002018160020C40B0020EC0F0020D4
S214007E00E00B0020F00F0020897900000010002011
S214007E1001282DE9F34740F034818B88012B40F090
S214007E2032810B681B7813BB994A9A4C13609A4AA6
S214007E3013609A4A13609A4A13609A4A13609A4AE1
S214007E4013709A4A13609A4A13602278022A01D164
S214007E5002F097F801232370964B00241C70964B73
S214007E601C70964B1C70204602B0BDE8F087032BB2
S214007E7040F0ED80914B874E1C78002C54D133781F
S214007E80002B00F0DE80884B1B78082B77D1804AC9
S214007E9013689046DBB940F628052B68A3F5006307
S214007EA0B3F5605F69D201F0C7FC002865D12B6886
S214007EB00190A3F50062B2F5605F04D21B6B01214E
S214007EC09B6901A898477C4B01221A702CE013F09E
S214007ED003071ABFC7F10407FFB2274603EB070ADA
S214007EE0BAF5806F00F2B18075483A461844FF2113
S214007EF002F02EFC6D4B684AC8F800A015681A6898
S214007F0015445544DFF89CA125F4FF65DAF8000017
S214007F1025F00705854299460BD9291A00F5006019
S214007F2002F002F818B18524002333709BE7CAF8E4
S214007F30005040F62802D9F800101268D8F8003031
S214007F40A2F50060B0F5605F14D2126B00201569D0
S214007F505B4AA8470546D9F80030D8F800204C49B7
S214007F6057481344DF1BC9F8007002F03DF8002D97
S214007F70D9D190E74FF48175EDE78024D4E7002B44
S214007F8061D04C4B1B78002BF7D0494F3B6843B968
S214007F90434B4C491868102201F0D4FF0028C2D188
S214007FA0C2E713F003021CBFC2F10402D2B203EB15
S214007FB00209B9F5806F48D84348384DDFF830815C
S214007FC0FF21184402F0C4FB4049414B414AC7F820
S214007FD000905B1A13442A6803EA0803934201D907
S214007FE08324A1E7914401F09DFEA0F580508145D1
S214007FF0F6D22B683A68DFF8AC901344D9F8000044
S21400800003EA0808804509D9A8EB000100F50060DE
S21400801001F08AFF002886D1C9F800803A682A490C
S214008020286801F08FFF2B683A6821498046134480
S21400803025482B6001F0D8FFB8F1000F7FF473AF2E
S214008040A6E7812470E784246EE782246CE7042B7D
S2140080501BD1214C214A224913234FF4006002F021
S214008060A9F813230221204663702170FFF7FEF95A
S2140080701C4A1D4B128905329A801C4A1A60627887
S2140080809A710024EFE60D24EDE60624EBE600BF29
S214008090E00F0020E60F00201C160020E80F00204E
S2140080A01012002018160020C40B0020EC0F002031
S2140080B014160020E40F0020BD090020E50F002064
S2140080C0E00B0020001200201412002010000020F8
S2140080D0B4000020C7D50000680A00202FC80000A2
S2140080E0F4C70000C0090020540A0020199B0000B5
S2140080F000F8FFFF10B508B3114B1A68918881424B
S2140081001CD39988814281BF0121126899809A60A8
S21400811099889A6800242AB904B19A604FF6FF71CC
S214008120998004E0884204D10CB198809A60104689
S21400813010BD013189B201241268ECE70022F6E78F
S214008140D40B00202DE9F04385B0044688468DE820
S2140081500C000C9EBDF83470FFF7CCFF4FF6FE798E
S21400816005460DB1444505D94FF6FF74204605B0C7
S214008170BDE8F0832B7A9DF804209A421ED1009920
S214008180686803F05FF8C8B9002EEFD02B69AA8A9A
S21400819053B14A4508D10290ADF80C0002A99847A1
S2140081A060B9029BBDF80C2043B1974206D13A460F
S2140081B01946304603F046F80028D7D001342D681B
S2140081C0A4B2CEE70B4BD3F8942002F00702022AA3
S2140081D004D001D3042A0AD9074800E00748D3F898
S2140081E00031C3F304230133B0FBF3F070474FF4C0
S2140081F00040F4E700400E40C0EA210100F04902CA
S214008200194B2DE9F0411F68184B194D02221A60D0
S214008210AB6913B3EFF3108072B6DFF86480002406
S214008220D8F80060C8F8004001F0D8FB0F23C8F863
S21400823000406C622C612C606B600E4B196851B16B
S2140082401C60EFF3108072B60B4A936923EA0103B1
S214008250936101F0C3FB06B1B04717B9074B022282
S2140082601A60BDE8F08100BF0419C843C8400E4636
S214008270008008403816002000300E40C8400E44EB
S21400828024160020124B828A9B88D21A8368C3F178
S2140082907F4303F57F0303F576433C334FF47A714F
S2140082A001FB02324368D21A0A4B196830B5D5175B
S2140082B0A2FB012312F1807201FB053343F1000398
S2140082C0520E42EAC312044B803ADA6030BD00BF59
S2140082D0380900203C160020900F0021094B1B682F
S2140082E030B5C517A3FB000110F1807003FB051124
S2140082F041F10001400E40EAC110803820EAE070EB
S21400830030BD00BF3C16002008B50A4B428A9B8849
S214008310D21A8368C3F17F4303F57F0303F57643E0
S2140083203C334FF47A7000FB0230FFF7D7FF024B66
S214008330986008BD38090020900F002108B50A4B48
S214008340C28A9B88D21A8368C3F17F4303F57F03F2
S21400835003F576433C334FF47A7000FB0230FFF7A8
S214008360BDFF024B186108BD38090020900F0021A0
S21400837008B500F47813B3F5802F1FD007D8ABB13B
S214008380B3F5003F29D0BDE8084002F06BB8B3F55E
S214008390002F1ED0B3F5202F25D0B3F5C02FF2D175
S2140083A0FFF710FF134BD3F810310CE0FFF70AFF6E
S2140083B0104BD3F80031C3F3042306E0FFF702FFA7
S2140083C00C4BD3F80C31C3F308230133B0FBF3F0A6
S2140083D008BDBDE80840FFF7F5BEFFF7F3FE054B06
S2140083E0D3F80831EFE7FFF7EDFE024BD3F8143170
S2140083F0E1E700BF00400E4038B5124D4FF40022B2
S2140084002A60114A1060114A1268D2B1104B114C02
S2140084101B6F00F5F42000F59070B0FBF4F4033CFD
S214008420E4B203F00703A34202D0204601F0C4FAE8
S214008430094B1B782BB1094B4FF4702224041A60A9
S2140084402C6038BD94400846180000208009C643BA
S21400845000300E4040420F0034160020944008447E
S214008460F0B5334A334D51681068127A85B001ABC7
S21400847003C31A70304B314A9C6B1B6B1168304A31
S21400848013F4801F2F4B12681B6801FB042404AAF8
S21400849014BFE418E41A2C4BB4FBF3F313442B4A32
S2140084A013F80B6C04ABF440B4FBF2F21A442B68DE
S2140084B012F80B7C23B92B2000F0EAFB01232B607B
S2140084C02A68234B43F6FF51196004EB5203B3FBB3
S2140084D0F2F3013B1F4A43EA063343EA872313605D
S2140084E01D4AB4FBF2F302FB1344642254431B4AB6
S2140084F0944298BF03F1FF335C08651E5C1C640859
S214008500072D04F1FF3403D8072C01D81DB914B980
S214008510102000F0BDFB124B4FF4EE621A602402EE
S21400852003F1007344EA05141C6005B0F0BD00BFFB
S2140085303FC8000018000020003008402816002021
S214008540301600202C16002040BE4025401B5F132E
S214008550A4400844A440084600F04902FFEF490240
S21400856030400844064B5B6BC3F3C20203F00700BF
S21400857002B15043C3F3821303B15843704700BFA0
S21400858000300840064A1146536803F07063B3F1A2
S214008590C06F02D1D36BDB06F6D540238B607047E5
S2140085A000400840204A936903F03001202910B5A6
S2140085B025D1C3F302441CB1C3F3C422B2FBF4F4C6
S2140085C013F4C01F18BF64006408032C28BF0424DB
S2140085D0112001F047FF144A116B8BB22BB1C1F387
S2140085E00741C0084843B0FBF3F3926902F030013C
S2140085F0102910D0202910D003FB04F010BD936979
S21400860003F4E073402B02D0B3F5807F01D102243F
S214008610DEE70124DCE75B08EEE7C2F3C4220132A2
S214008620B3FBF2F3E8E700BF006008400D4BDB6CDD
S21400863013F0200F0CBF00200420D90648BF0230DC
S2140086401A0744BF0230C0B2590744BF0230C0B256
S2140086509A0744BF0130C0B2DB0744BF0130C0B246
S214008660704700BF00000840094B08221A6001222C
S2140086701A6010221A6080221A6040221A60202295
S2140086801A6004221A604FF480721A60704700BFA6
S214008690C8400E46044BD3F89430002BBCBF034BA7
S2140086A0C3F88000704700BF004008400000084044
S2140086B0084B09491B68096830B54FF0004400258F
S2140086C0E3FB00452A460023E0FB0123104619463B
S2140086D030BD00BF4016002044160020F8B50E4CF2
S2140086E0FFF7E6FFA569216BE368DB0713D54908AA
S2140086F08842074628BF0F46A269266B9542A2EB22
S214008700050384BF01369B199F42F5D8984202D9CB
S214008710C01A1546ECE7F8BD005008402DE9F047B2
S21400872003469246EFF3108072B6DFF880E1584CAD
S2140087301A0196444FF4807C01250CFA03FCBAF12A
S214008740020FCEF80050C4F864C004D101F046F918
S2140087500120BDE8F087A269246BBAF1010F04BFBF
S214008760551C49190025013445F100050027AF4284
S21400877008BFA14218D2464E376B8A4238BF01372F
S214008780A2EB010638BFF6194FEA940800274FEA15
S214008790950948EA8578B94508BFB04506D301F083
S2140087A01DF90020BDE8F087091BDFE7384F3C6F56
S2140087B0FF6E27F0604703F1090524F0E00427F474
S2140087C060072E02E4043F0C2D0646F001063F0427
S2140087D045F48035E40CB4420CBF04240024AF42B8
S2140087E02B4DEF6E27F0E0074FEAC7474FEAD74713
S2140087F008BF44F00204BE4208BF44F0010414F06F
S21400880001061CBF234F396005EB0317073305EB42
S2140088100313C7F8801011275F60AF692B6BBA424D
S214008820A7EB020584BF0133ED18194B1F6B8A4274
S214008830A1EB020884BF7A1C9044A845DA6D85D85F
S21400884012EA0C0F82D1BAF1000F05D10122CEF840
S2140088500020C3F864C0A2E7C3F860C046B10E4B60
S2140088600E4941F61F7240F201151A600D601A603B
S214008870A20706D5084B0949094A0A4D1A600D6039
S2140088801A60630742BF084B01229A605EE700BF8A
S21400889000500840201600206C5008446C500846D3
S2140088A000001F1F000001010040084074500844EB
S2140088B070B525490B78032B44D0244C236823F449
S2140088C07F5222F00802130A5A2803F47F5316D95F
S2140088D04D88B5F5E16F14D8C92843F6C87632BF7F
S2140088E000250125334613431E2823604FF001035D
S2140088F00BD8174A136093610822164B21E0002517
S214008900F1E7012543F6C873EDE7134A50281360D4
S2140089109361F1D94B88B3F5E16F01D87828EBD98C
S2140089200E4A4DF601731360002D936102F100723A
S21400893014BF4FF457434FF4504313609361084BF2
S21400894008221A6070BD00BF38090020E00F002121
S2140089500841084494400844084108460441084435
S2140089609440084608B5FFF7FDFD01380F4B082870
S2140089701AD8DFE800F005191111131315151500A4
S2140089800B4A1278012A4FF0440201D19A6001E0A6
S214008990002199605A6008BD0022F7E73322F5E708
S2140089A000229A60A222F5E7F722FAE7E00F0021FC
S2140089B038090020F8B53A4B3A4A002808BF01208B
S2140089C01860394B9B69C3F38213072B0C46137050
S2140089D005D0012202FA03F313F04C0F5BD1334BA0
S2140089E01B78022B59D0012B0CBF3221B421304DFD
S2140089F0002342F2107601FA03F252117243B2FBE0
S214008A00F5F2904202D30133102BF4D12648294ABE
S214008A10274F0904C16640F6FF711160013B02F161
S214008A2000721B021360C16EC36EC26E856ED0F8F4
S214008A3068E0866E1D48C6F30326C2F30742C3F3FA
S214008A400723CEF3031EB24005F00F0503FA0EF31C
S214008A50C9B242F21076A94052115B1172437343B9
S214008A60B2FBF7F2B3FBF7F3491113444E43B6FBE0
S214008A70F7F61E44868005465CB12046FFF75EFC8E
S214008A802046FFF741FC2046FFF7FCFB2046FCF79C
S214008A9099FFA888F8BD0021A9E79621A7E700BF9F
S214008AA054180020280000200060084038090020E4
S214008AB000DC050068600844F8B50446C820FFF7E7
S214008AC0F7FE444B444F1D78032D03D1FF243C7022
S214008AD02046F8BD012D414A16D1072C12D8012C8C
S214008AE008BF022411683E4B0B4043EA0463136040
S214008AF03C4B04221A60A4B2E4B220463C70FFF756
S214008B00D7FEE5E70724EDE7116821F0F95121F4D7
S214008B10FE1141F47F5141F008011160002D47D14C
S214008B20042C47D9231FDCB201262F4BD3F888210B
S214008B30D24302F4FE1242F40052B2FA82F2C2F1BA
S214008B401302C2EB4212D3B2A34228BF2346DBB2C3
S214008B509AB28DBBB4001444244A7BBB2448C2F8A6
S214008B6058011F25B3FBF5F5EAB2501CC5EB4515B9
S214008B7001225D1B8240013A2D06920305F18075A5
S214008B8002F47F12154B29431143184A1960D2F894
S214008B905831D4B123F07F4323F0040343F07F43DE
S214008BA0C2F858314FF480038EB1124A1360A3E71F
S214008BB00026BAE72E46B8E70024CCE74FF0E06080
S214008BC0013BC2F85801DBB2CBE70B4BE8E70B4A98
S214008BD0ECE700BF380900201C000020E00F002151
S214008BE03F00C0E05841084400400E4000400840A6
S214008BF02C00000708410846040000070841084406
S214008C00094A0A494FF48033C2F8E8300B60916B8A
S214008C10074BC9B29961926BC2F307229A6104228C
S214008C209A6100229A61704700100840EC100846CE
S214008C306010084010B4EFF3108072B60E4A0F4969
S214008C400F4C01239365C2F8883000230B604C60FC
S214008C5003244C620B490C800B495DF8044B0B80D7
S214008C604FF4A021C2F8E81002F1C062EC321160A5
S214008C70064A136000F0B2BE0010084060100840BC
S214008C80F0080020320900203009002034090020B6
S214008C90034B044A18601860034B12681A60FEE71C
S214008CA02000002048180020240000202DE9F04174
S214008CB00E46EFF3108772B6434B444D1B88DFF821
S214008CC01CE103F03C01022829441CD140480468FA
S214008CD0B4B9BEF800401C44033C04F03C042C44E9
S214008CE003F03F03E31A5B1BBEF8000048BF4033A7
S214008CF083420DDB384600F071FE0020BDE8F081AF
S214008D0024F00104ECE7012814BF04460C46E7E70C
S214008D100EB9002A50D08C4226D12E49C96B1FFAB4
S214008D2081F80AB1A2F80080002E45D02949D1F872
S214008D308020C2F30C0293421FDA23889DB21B04E4
S214008D40D8D4A27802F00702A5EB0805052A3270EF
S214008D50C5F309051ED9FFF769FC2D1A2DB2002DA3
S214008D6018DA0420FFF794FF211FA94238BF2146D6
S214008D70B1F80080C8F30C08D3E78D6BA5EB0805A7
S214008D80C5F30905FCF716FEE5B903280CBF082352
S214008D9000233370104A7580C8F30803D118B160F9
S214008DA05919B1F5007FC9BFC3F500730023B3801E
S214008DB0F260DCBFB580F360384600F00FFE204658
S214008DC0BDE8F0810823E4E730090020F008002021
S214008DD03409002000100840481600203209002000
S214008DE0431E012B03D9031F5842584170470120E8
S214008DF070470000B1F9122047F6FF739A4210B58B
S214008E000BD0074B04791978064B186801F004F963
S214008E1084428CBF0020012010BD012010BD00BF81
S214008E2038090020481800202DE9F04F6D4F466A9B
S214008E303B68D0F8209089B00025039343880193BF
S214008E40039B8DF81F50B342044688468DF81E508B
S214008E5003D113B1019B99424ED0B9F1000F00F037
S214008E60BC80D9F80820002A00F0B780D9F80C207A
S214008E70002A00F0B2805C4A0492136802934FF016
S214008E80000A18224FF0010BD9F80C108A4515D2AB
S214008E90D9F8085002FB0A55E989414531D8298A94
S214008EA041452ED32946204605928DF81EB0FFF781
S214008EB0A1FF059A20B38DF81FB02E464B4A92F8B4
S214008EC000A09DF81F20A4F10C0BEAB121792046E2
S214008ED0FDF722FE049B1A68002A63D091453AD11A
S214008EE03968002937D08E4235D1019B98451ED16E
S214008EF06662A4F802800025284609B0BDE8F08F17
S214008F002E460AF1010ABFE79DF81E20002A66D009
S214008F10B6F9122047F6FF718A4206D03449584601
S214008F20097801F079F80146D1E7FF21CFE7002361
S214008F30324641462046FDF78BFF05460028D7D02F
S214008F4051462046FDF7E8FD00233A680199204681
S214008F50FDF77EFFD0E7116821B3D9F80000814203
S214008F6020D151682046FDF7BDFC0546E8B93168BA
S214008F702046FDF7B7FC0546B8B9049B6662C3F801
S214008F800090A4F8028001233246414620463E6007
S214008F90FDF75EFF054640B9164B31461B6858463E
S214008FA09847A9E7D9F80010DCE7049B1A46029B0D
S214008FB01360039B3B60029B1BB119682046FDF7BC
S214008FC091FC51462046FDF7A7FD3B68002B93D049
S214008FD019682046FDF786FCB6E703258CE70125D1
S214008FE08AE700BF501800204C1800201C00002004
S214008FF0380900202C00002070B586B00E461546B5
S214009000044618220021684601F0A2FB0134054BF5
S21400901000936946042001940296039500F05AFED8
S21400902006B070BD5818002037B50D461446FFF739
S21400903061F8B8B10369828AC3B14FF6FE718A42FD
S21400904014D100200090ADF804006946984738B95E
S214009050009B2B60BDF804302380286820B9208050
S21400906003B030BD0120FBE70020F9E72B6022802B
S214009070F3E737B50D461446FFF73CF840B10369F1
S21400908023B1818A4FF6FE72914204D00E2000E092
S214009090012003B030BD0095ADF8044069460120BC
S2140090A09847F6E71F4B1B78D90742BF1E4A4FF476
S2140090B0806111609A0742BF1B4A4FF4006111603D
S2140090C0580742BF194A4FF480611160190742BF22
S2140090D0164B4FF400621A60154B4FF480621A600C
S2140090E0144B1A68920642BF134A4FF480711160FF
S2140090F01B6803F0A003A02B10D1104A136AC3F319
S2140091000803032B0CD95368D2680332C2F3080253
S214009110134403F100531A78094B5A600020704735
S2140091200320704778180020A0000846A4000846D0
S2140091301C600844140F00218840084600100840B0
S214009140180F00210A4B0B4910B503620023436237
S2140091504FF6FF74CA18D289944201D9144612B148
S2140091601833F02BF6D12146FFF75EFE204610BDE1
S21400917000CB000010CB000037B58DE80600044693
S2140091809DE80300251D85E805002373069B2361E3
S2140091900A4ABDF81C30A3820023236013682BB153
S2140091A0196809B91C6002E00B46F9E7146090885C
S2140091B0013080B2908003B030BD00BF6018002040
S2140091C0002908BF01282DE9F04706460F4602EAA7
S2140091D0000803EA010920D0C0F04B81002908BF2F
S2140091E00428DFF89CA235D1EFF3108072B6DAE9D6
S2140091F0002322F0040242EA080243EA0903CAE90D
S214009200002358EA090314BF9B4A9C4A4FF4806324
S2140092101360BDE8F04700F0E1BBEFF3108072B6D4
S2140092209749D1E9002322F0010243EA090342EA02
S2140092300802C1E9002358EA0903924A4FF00103E5
S21400924004D0936302F1C0623C32E1E78E490B60C2
S2140092509363DEE7FCF70CFCDAE900458B4B24EA67
S214009260060425EA070544EA080445EA09051E68D7
S214009270874FCAE90045FCF721FC04F0AA620023E8
S214009280134348F2020308BF4FF40043B107814975
S214009290CA6E48BF43F4005382EA030002403A60B5
S2140092A08A667D4A7D4F03408B661360002304F474
S2140092B00042134304F480304FF0000114BF4FF413
S2140092C08053002350EA010204F010004FF0000122
S2140092D018BF43F4807350EA010204F020004FF0F8
S2140092E0000118BF43F4005350EA010204F04000A6
S2140092F04FF0000118BF43F4007350EA010204F077
S21400930080004FF0000118BF43F4806350EA01026A
S2140093106349D1F88C2018BF43F4006382EA030047
S21400932002403A60C1F888205E4A5F4F0340C1F8A9
S2140093308830136005F004030022134304F4006031
S2140093404FF0000114BF4FF48023002350EA0102BF
S21400935004F480404FF0000118BF43F4803350EA15
S214009360010204F002004FF0000118BF43F480131E
S21400937050EA010204F400304FF0000118BF43F435
S214009380001350EA0102494818BF43F4002372074D
S214009390026A48BF43F0040382EA030121F0010198
S2140093A00A403A60C261424A0B40C3611360414AB8
S2140093B0414B16F0010F04F080404FF0000118BF3B
S2140093C0134650EA01023D493D4E8A6E18BF43F0EF
S2140093D0007382EA03000240326003404A66394A5C
S2140093E04B6628491360CA6B04F0010006F5FE566A
S2140093F082EA000314361A4032608A63324A034017
S2140094008B63136004F48022002313432F48304AF2
S214009410304B04F004044FF0000518BF134654EA1E
S2140094200502D0F8EC20154C18BF43F4806382EA9E
S214009430030121F4A0210A402260C0F8E8200E4A69
S2140094400B40C0F8E8301360EFF3108072B6224B82
S2140094504FF000621A6080221A6008221A601022FA
S2140094601A604FF080521A6040221A6020221A605A
S214009470CFE6BDE8F08700BFEC100846EC100844C5
S21400948070180020007008403C70084468180020DF
S2140094906C000844000008406C0008468C600844D5
S2140094A0006008408C6008462040084400400840A1
S2140094B020400846001C700000187000005008404D
S2140094C068500844685008463C700846001008403B
S2140094D00D0A0A09090A0A0900E100E037B503790E
S2140094E0124A03330446019300F14403009306CA6C
S2140094F002231430FFF740FE228A0192E268237AA4
S214009500009204F12C0094E80600FFF735FE237A5B
S214009510A4F84500054684F844302279216804F111
S214009520470001F09EFE284603B030BDA0CC0000E8
S21400953007B503790193054A0368009306CA022318
S2140095400830FFF719FE03B05DF804FBA8CC000056
S21400955070B50D4C0D4B06460D4694E803000834D6
S21400956083E803001846FFF7E3FF094B94E803007F
S21400957002221A7283E80300DE601D821846BDE8E8
S2140095807040FFF7ABBF00BF78CC0000E0180020AB
S214009590801800200A4B40F2011210B51A604FF0F6
S2140095A0FF329A6001225A6008441A46814202D16C
S2140095B0D869C04310BD11F8014B9461F6E700BFAF
S2140095C000C00140C0F30323013B10B50446092B3D
S2140095D01BD8DFE803F033231B1A0526291A2C3084
S2140095E0184B0022C4F3043442B11749D1F84401A1
S2140095F0C00703D4D1F840010242FBD103F1047343
S21400960004EBC3039B0001221A6010BD0F4800F054
S21400961029FF00F0C1FF00220D4BE3E700220D4BAF
S214009620E0E701220C4BDDE710220C4BDAE74FF4A3
S21400963080320B4BD6E700220A4BD3E70022024BC0
S214009640D0E700BFB0400E4000400E4000050800C6
S214009650B8400E40C0400E40E0400E40E8400E408D
S214009660F0400E4050410E4038B50C4BD3F8EC504D
S21400967003F18063EC334FF480641C60084B0020D9
S214009680186000F0ABFF074B4FF400521A606A05F3
S21400969003D503F1007398331C6038BD00100840F2
S2140096A07C18002054100844F8B5042800F29C806A
S2140096B0DFE800F00A031190950080244025062379
S2140096C0072200296ED17CE04FF400744FF48075B9
S2140096D008230922F5E7002971D0444A536A13F09B
S2140096E0300F5CD1536ADC0705D5536A23F030038C
S2140096F043F0100353620322022304253B4C2566E5
S2140097003B4C23449B001E68002EFCD02244940051
S2140097102368002BFCD0022866D1002964D0334B86
S2140097205A6A12F0010F1A463ED04FF48062C3F810
S214009730A82020225A665A6A12F0300F0CBF4FF447
S21400974040024FF40002D3F8901032EA0101FAD139
S214009750520201D5D3F8A030244E00210220D6F8BC
S2140097609C70FFF7A1FFD6F89030726A214B22F06A
S214009770300242F010027262C7F30A07316BFA0930
S21400978003320F2A03EA010328BF0F223B4343EAB2
S2140097900273336335662368002BFCD0F8BD0322C2
S2140097A0022304250021A9E7536AD2F8903003F477
S2140097B04003B3F5400FF8D1D2F8A030CCE7082428
S2140097C002230A4A14660A4A1A4492001368002BB7
S2140097D0FCD1F8BD0125022400232A4671E7202487
S2140097E01025042305226CE7F8BD00BF00400E409C
S2140097F08004F21000F8FF0F70B540F62804E0B0C1
S2140098002368A3F50062B2F5605F05460E4610D2E7
S2140098101B6B4FF4C0725B6A69460020984730B9EC
S21400982023681B6B3246DB6A29466846984760B059
S21400983070BD4FF40170FAE770B540F62805E0B049
S2140098402B68A3F50062B2F5605F04D34FF4017491
S214009850204660B070BD1B6B002BF7D05B6A4FF4E0
S214009860C07269460020984704460028F0D140F2AE
S21400987001262B68A3F50062B2F5605FE6D21B6B8B
S21400988000219B6A68469847B042F2D040F2032314
S214009890984218BF0446DBE7042806D80138032898
S2140098A006D8DFE800F00202020200231B78FFDE83
S2140098B0704700000B4A536911699B0003F03C0394
S2140098C0C1F381110B438370136903F03F034370A8
